:100000000C9462000C948A000C948A000C948A0070
:100010000C948A000C948A000C948A000C948A0038
:100020000C948A000C948A000C948A000C948A0028
:100030000C948A000C948A000C948A000C948A0018
:100040000C94DB070C948A000C94A9070C9483078A
:100050000C948A000C948A000C948A000C948A00F8
:100060000C948A000C948A000000000024002700F1
:100070002A0000000000250028002B0000000008D6
:10008000000201000003040700000000000000005F
:1000900000000000230026002900040404040404D6
:1000A0000404020202020202030303030303010227
:1000B00004081020408001020408102001020408F6
:1000C0001020250811241FBECFEFD8E0DEBFCDBF22
:1000D00011E0A0E0B1E0E2EFF8E102C005900D927E
:1000E000AC34B107D9F722E0ACE4B1E001C01D9215
:1000F000A530B207E1F710E0C2E6D0E004C02197D6
:10010000FE010E94710CC136D107C9F70E94720826
:100110000C94770C0C940000CF92DF92EF92FF9238
:10012000CF93DF93C82F8091F8018C3009F45EC023
:1001300038F48B30F1F060E070E080EC9FE74FC066
:1001400085518230C0F7D091F4016D2F70E0762F89
:10015000662766277F778091F501682B90E080E025
:100160000E94CB0A2DEC3CEC4CEC5DE30E94820B30
:1001700059C06091F40170E090E080E00E94CB0AE9
:100180006B017C01D091F501D7FF0AC0AC019B0146
:1001900060E070E080E89FEB0E94B8096B017C0191
:1001A000DF706D2F70E090E080E00E94CD0A2DECB2
:1001B0003CEC4CEC5DE30E94820BA70196010E948F
:1001C000B909CC2361F026E636E646EE5FE30E94ED
:1001D000820B20E030E040E052E40E94B909DF9158
:1001E000CF91FF90EF90DF90CF900895D091F401E0
:1001F0006D2F70E090E080E00E94CB0A6B017C01E3
:100200006091F5016F7070E090E080E00E94CD0A8F
:100210002DEC3CEC4CEC5DE30E94820BA7019601B7
:100220000E94B909D7FFCDCF9058CBCFCF92DF92A4
:10023000EF92FF92CF93DF93B091F901A0E081118B
:10024000AB2F8091FA0190E0880F991FAC014057C5
:100250005F4FC090FF01D0900002E0900102F0904B
:10026000020230E020E0FA01C591D491E881B901A1
:1002700090E080E0EB23EA130AC02F5F3F4F6C153C
:100280007D058E059F0578F36FEF7FEFCB01DF9142
:10029000CF91FF90EF90DF90CF900895AF92BF92F3
:1002A000CF92DF92EF92FF920F931F93CF93DF9342
:1002B0006C017B018B01040F151FEB015E01AE1871
:1002C000BF08C017D10759F06991D601ED91FC9193
:1002D0000190F081E02DC6010995892B79F7C501C0
:1002E000DF91CF911F910F91FF90EF90DF90CF9012
:1002F000BF90AF900895FC01538D448D252F30E0C1
:10030000842F90E0821B930B541710F0CF96089522
:1003100001970895FC01918D828D981761F0A28D4F
:10032000AE0FBF2FB11D5D968C91928D9F5F9F7315
:10033000928F90E008958FEF9FEF0895FC01918DCB
:10034000828D981731F0828DE80FF11D858D90E038
:1003500008958FEF9FEF0895FC01918D228D892FD5
:1003600090E0805C9F4F821B91098F7399270895BD
:1003700085E591E00E94AC0121E0892B09F420E0A1
:10038000822F089580E090E0892B29F00E94B80127
:1003900081110C9400000895FC01A48DA80FB92FC1
:1003A000B11DA35ABF4F2C91848D90E001968F739D
:1003B0009927848FA689B7892C93A089B1898C91BC
:1003C000837080648C93938D848D981306C002880B
:1003D000F389E02D80818F7D80830895EF92FF92D5
:1003E0000F931F93CF93DF93EC0181E0888F9B8D58
:1003F0008C8D98131AC0E889F989808185FF15C012
:100400009FB7F894EE89FF896083E889F989808134
:100410008370806480839FBF81E090E0DF91CF9103
:100420001F910F91FF90EF900895F62E0B8D10E025
:100430000F5F1F4F0F731127E02E8C8D8E110CC094
:100440000FB607FCFACFE889F989808185FFF5CFDF
:10045000CE010E94CC01F1CFEB8DEC0FFD2FF11DF1
:10046000E35AFF4FF0829FB7F8940B8FEA89FB891C
:1004700080818062CFCFCF93DF93EC01888D88237A
:10048000B9F0AA89BB89E889F9898C9185FD03C0F7
:10049000808186FD0DC00FB607FCF7CF8C9185FFDC
:1004A000F2CF808185FFEDCFCE010E94CC01E9CF54
:1004B000DF91CF910895CF93DF9390E0FC01E25557
:1004C000FF4F249186569F4FFC0184918823D1F0E1
:1004D00090E0880F991FFC01E859FF4FA591B49156
:1004E000FC01EE58FF4FC591D491623071F49FB773
:1004F000F8943C91822F809583238C93E8812E2B56
:1005000028839FBFDF91CF9108958FB7F894EC9126
:100510002E2B2C938FBFF6CF3FB7F89480914D01CF
:1005200090914E01A0914F01B091500126B5A89B2A
:1005300005C02F3F19F00196A11DB11D3FBFBA2F75
:10054000A92F982F8827BC01CD01620F711D811D35
:10055000911D42E0660F771F881F991F4A95D1F7BA
:1005600008958F929F92AF92BF92CF92DF92EF92B7
:10057000FF924B015C010E948C026B017C010E9486
:100580008C026C197D098E099F09683E73408105B4
:100590009105A8F321E0821A9108A108B10888EE1C
:1005A000C80E83E0D81EE11CF11C81149104A10443
:1005B000B10429F7FF90EF90DF90CF90BF90AF90FC
:1005C0009F908F9008958F929F92AF92BF92EF92DB
:1005D000FF920F931F93CF93DF93CDB7DEB7C05435
:1005E000D1400FB6F894DEBF0FBECDBF2FB7F89441
:1005F0008091510190915201A0915301B091540109
:100600002FBF4091FB015091FC016091FD01709161
:10061000FE018C019D01041B150B260B370BB90144
:10062000A801403D574061057105A0F48091030287
:10063000C05CDE4F0FB6F894DEBF0FBECDBFDF91BA
:10064000CF911F910F91FF90EF90BF90AF909F902F
:100650008F9008958093FB019093FC01A093FD017E
:10066000B093FE011092F6011092F5011092F40180
:100670001092F3011092F20162E08091F7010E9462
:100680005B0261E070E080E090E00E94B10261E016
:100690008091F7010E945B028091F70190E0FC01DC
:1006A000E458FF4F2491FC01E255FF4F3491FC01C7
:1006B000E656FF4FE491EE23D9F0222359F0233080
:1006C00009F44BC008F03EC0213009F44CC0223080
:1006D00009F44DC0F0E0EE0FFF1FEE58FF4FA5915B
:1006E000B4918FB7F894EC9130953E233C938FBF33
:1006F0008091F8018551823008F046C08BE291E18B
:100700000197F1F762E08091F7010E945B0280910E
:10071000040290E08230910538F0880F991F880F0D
:10072000991F05970197F1F7F89480E00E94160150
:100730006F3F7F4F8F4F9F4F71F510920302789458
:1007400080E076CF2730B1F02830D1F0243009F0A6
:10075000C1CF809180008F7D03C0809180008F7712
:1007600080938000B7CF84B58F7784BDB3CF84B535
:100770008F7DFBCF8091B0008F778093B000AACFA0
:100780008091B0008F7DF9CF64E170E080E090E06F
:100790000E94B102B7CF81E00E9416016F3F7F4FE8
:1007A0008F4F9F4F51F2CE0101967C015E019FEB6E
:1007B000A91A9EEFB90A870180E00E941601F8018C
:1007C000608371838283938381E00E941601F80124
:1007D0006483758386839783085F1F4FA016B106D5
:1007E00059F7789430E020E0F70180809180A28072
:1007F000B3804481558166817781FFEF8F169F0614
:10080000AF06BF0631F04F3F0FEF5007600770078C
:1008100019F41092030294CFF90183E0F595E7955E
:100820008A95E1F7EE50FE4F8081880F8416950679
:10083000A606B70618F180832F5F3F4F18E0E10E40
:10084000F11C2832310581F64091F6012091F20128
:100850008091F301280F3327331F8091F401280F73
:10086000311D8091F501820F932F911D9927481713
:10087000190679F681E080930302DACE8160DBCF3E
:10088000FC0101900020E9F73197AF01481B590B9B
:10089000BC0185E591E00C944E018F929F92AF923E
:1008A000BF920F931F93CF93DF93CDB7DEB7A1977E
:1008B0000FB6F894DEBF0FBECDBF19A2423008F4C8
:1008C0004AE08E010F5D1F4F842E912CB12CA12C7C
:1008D000A50194010E944F0CE62FB901CA01EA302C
:1008E000F4F4E05DD801EE938D01232B242B252B0E
:1008F00079F790E080E0109719F0CD010E94400454
:10090000A1960FB6F894DEBF0FBECDBFDF91CF9199
:100910001F910F91BF90AF909F908F900895E95CC9
:10092000E1CF4F925F926F927F928F929F92AF92A0
:10093000BF92CF92DF92EF92FF920F931F93CF93CC
:100940006B017C01742EAC019B010E94350C882345
:1009500099F082E191E0CF911F910F91FF90EF907C
:10096000DF90CF90BF90AF909F908F907F906F90CF
:100970005F904F900C94400446015701E894B7F8FB
:100980002FEF3FEF4FE75FE7C501B4010E94350C41
:1009900081110DC02FEF3FEF4FE75FE7C501B401B5
:1009A0000E94250A18161CF486E191E0D4CF2FEF9F
:1009B0003FEF4FE75FE4C701B6010E947D0B1816B9
:1009C0001CF48AE191E0C7CF2FEF3FEF4FE75FECD8
:1009D000C701B6010E94250A87FDF3CF20E030E071
:1009E000A901C701B6010E94250A10E000E087FFB7
:1009F0000AC06DE285E591E00E94EE018C01F7FAF4
:100A0000F094F7F8F094C0E060E070E080E09FE3DD
:100A10007C1641F020E030E040E251E40E942A0AD6
:100A2000CF5FF6CFA70196010E94B9092B013C01C7
:100A30000E949C0A4B015C014AE00E944D047C012B
:100A4000E00EF11ECC23C1F1C501B4010E94CB0A16
:100A50009B01AC01C301B2010E94B8094B015C01CA
:100A60006EE285E591E00E94EE01E80EF91EC150AC
:100A700018F120E030E040E251E4C501B4010E94E9
:100A8000820B2B013C010E949C0A4B01B12CA12C32
:100A90004AE0C501B4010E944D04E80EF91EC501EB
:100AA000B4010E94CB0A9B01AC01C301B2010E94B8
:100AB000B8094B015C01DBCFC701CF911F910F91AA
:100AC000FF90EF90DF90CF90BF90AF909F908F906E
:100AD0007F906F905F904F9008954F925F926F92CA
:100AE0007F928F929F92AF92BF92CF92DF92EF92BE
:100AF000FF920F93CF93DF93CDB7DEB728970FB652
:100B0000F894DEBF0FBECDBF6B017C0149015A01D5
:100B100001110EC026E636E646EE5FE30E94820B28
:100B200020E030E040E052E40E94B9096B017C0112
:100B300020E030E048E852E4C701B6010E94B8095D
:100B40002AE939E949E95FE30E94820B2B013C0164
:100B500020E030E044E752E4C701B6010E94B90941
:100B60009B01AC01C301B2010E94B9092B013C01F8
:100B700022E133E840EC5DE3C501B4010E94820B41
:100B80009B01AC01C301B2010E94B90920E030E031
:100B900040E05FE30E94820B2B013C0120E030E04B
:100BA0004EE952E40E947D0B18160CF023C1A701F8
:100BB0009601C701B6010E94820B2B013C01A501E1
:100BC0009401C501B4010E94820B6D837E838F83E3
:100BD000988721E133E243E050E4C701B6010E9467
:100BE000820B29E134E849E252E40E94B8096983A2
:100BF0007A838B839C8326E13BE442E251E4C50186
:100C0000B4010E94820B9B01AC0169817A818B81C6
:100C10009C810E94B90969837A838B839C8328E431
:100C200036E246E65EEBC701B6010E94820BA501E3
:100C300094010E94820B9B01AC0169817A818B81B6
:100C40009C810E94B90969837A838B839C8320EEFF
:100C50003FE040EE5BEBC301B2010E94820B9B01BF
:100C6000AC0169817A818B819C810E94B909698379
:100C70007A838B839C8328EF37E840E65DEB6D81B8
:100C80007E818F8198850E94820B9B01AC016981D6
:100C90007A818B819C810E94B90969837A838B83D5
:100CA0009C832CEA3DE041EA5AE3C301B2010E9471
:100CB000820BA50194010E94820B9B01AC0169810A
:100CC0007A818B819C810E94B90969837A838B83A5
:100CD0009C8328EC3FE84FE55AE3C701B6010E9428
:100CE000820B2D813E814F8158850E94820B9B0192
:100CF000AC0169817A818B819C810E94B9096983E9
:100D00007A838B839C8321EF3BE845E056EBC3015C
:100D1000B2010E94820B2D813E814F8158850E9435
:100D2000820B9B01AC0169817A818B819C810E943D
:100D3000B9092B013C0120E030E040E551E4C50158
:100D4000B4010E94250A87FF88C020E030E040EA15
:100D500052E4C701B6010E947D0B87FD7EC020E0F2
:100D600030E040EE52E4C701B6010E94250A181691
:100D70000CF4BDC0A501940160E070E080E591E451
:100D80000E94B80920E030E040E85EE30E94820B58
:100D90004B015C0120E030E04EEB52E4C701B601AC
:100DA0000E94B8096B017C0120E030E0A9010E949B
:100DB0007D0B18160CF048C0A701960160E070E0AA
:100DC00088E891E40E94B8092EE33DEE40E75DE338
:100DD0000E94820B0E94F50B9B01AC01C501B4017E
:100DE0000E94820B9B01AC01C301B2010E94B809B1
:100DF0002B013C01011110C020E030E040E052E442
:100E0000C301B2010E94B80926E838E34EE05FE36F
:100E10000E94820B2B013C01C301B20128960FB640
:100E2000F894DEBF0FBECDBFDF91CF910F91FF9041
:100E3000EF90DF90CF90BF90AF909F908F907F907A
:100E40006F905F904F90089520E030E048E851E4C3
:100E5000C701B6010E94B909B7CF20E030E04AEAE5
:100E600052E4C501B4010E947D0B18161CF620E067
:100E700030E040EA52E4C701B6010E947D0B87FDD5
:100E8000B9CF20E030E04EEA52E4C701B6010E943B
:100E9000250A18160CF4AECF20E030E04AEA52E4FE
:100EA000C501B4010E94B8092DEC3CEC4CEC5DE3AB
:100EB0000E94820B4B015C01A701960160E070E08B
:100EC0008EEA92E40E94B8092DEC3CEC4CE45EE31F
:100ED0000E94820B9B01AC01C501B4010E94820BF0
:100EE0009B01AC01C301B2010E94B90981CF20E08E
:100EF00030E04AEA52E4C501B4010E947D0B1816A5
:100F00000CF4BFCF77CF1F920F920FB60F92112420
:100F10002F933F934F935F936F937F938F939F9301
:100F2000AF93BF93EF93FF9385E591E00E94CC01CF
:100F3000FF91EF91BF91AF919F918F917F916F91B1
:100F40005F914F913F912F910F900FBE0F901F9087
:100F500018951F920F920FB60F9211242F938F9313
:100F60009F93EF93FF93E0916501F091660180817B
:100F7000E0916B01F0916C0182FD1BC0908180912A
:100F80006E018F5F8F7320916F01821741F0E091A6
:100F90006E01F0E0EB5AFE4F958F80936E01FF914A
:100FA000EF919F918F912F910F900FBE0F901F90F7
:100FB00018958081F4CF1F920F920FB60F921124D3
:100FC0002F933F938F939F93AF93BF938091510142
:100FD00090915201A0915301B091540130914C0174
:100FE00023E0230F2D3758F50196A11DB11D209345
:100FF0004C018093510190935201A0935301B093FF
:10100000540180914D0190914E01A0914F01B091FA
:1010100050010196A11DB11D80934D0190934E0189
:10102000A0934F01B0935001BF91AF919F918F91C9
:101030003F912F910F900FBE0F901F90189526E8AB
:10104000230F0296A11DB11DD2CFE5E5F1E0138279
:10105000128288EE93E0A0E0B0E084839583A683BB
:10106000B78384E091E09183808385EC90E095875D
:10107000848784EC90E09787868780EC90E0918B62
:10108000808B81EC90E0938B828B82EC90E0958B4F
:10109000848B86EC90E0978B868B118E128E138E4C
:1010A000148EA2EFB1E082E015968C9315978BE039
:1010B00016968C931697E0EBF0E0E4911796EC937C
:1010C0001797ECE9F0E0E4911896EC93189740E854
:1010D0005EE360E070E01D964D935D936D937C93AD
:1010E00050970895789484B5826084BD84B58160FA
:1010F00084BD85B5826085BD85B5816085BD8091E3
:101100006E00816080936E0010928100809181005A
:101110008260809381008091810081608093810052
:10112000809180008160809380008091B100846014
:101130008093B1008091B00081608093B000809175
:101140007A00846080937A0080917A008260809334
:101150007A0080917A00816080937A0080917A0091
:10116000806880937A001092C100E0916501F0914F
:10117000660182E08083E0916101F091620110825A
:10118000E0916301F09164018FEC808310926D0116
:10119000E0916901F0916A0186E08083E091670146
:1011A000F0916801808180618083E0916701F09116
:1011B0006801808188608083E0916701F091680117
:1011C000808180688083E0916701F091680180816F
:1011D0008F7D80838EE191E00E94400488E291E05F
:1011E0000E94400462E08091F7010E945B022FB7E9
:1011F000F8948091510190915201A0915301B091C6
:1012000054012FBF805D9740A109B1098093FB0174
:101210009093FC01A093FD01B093FE0187E38093BE
:101220000402C0E0D0E064EF71E080E090E00E9452
:10123000B1020E94E302882351F08091F8018B30C3
:1012400030F08D3058F08551823008F469C0C12CDF
:10125000D12C20ECE22E2FE7F22E1EC06091F3017C
:1012600070E090E080E00E94CD0A2DEC3CEC4CEC6C
:101270005DE30E94820B6B017C016091F20170E0E2
:1012800090E080E00E94CD0A9B01AC01C701B6014D
:101290000E94B9096B017C010E94E302812C912C10
:1012A00090ECA92E9FE7B92E882329F080E00E94B8
:1012B0008C004B015C010E94E302882309F442C0C8
:1012C00081E00E948C002B013C01A7019601C7011F
:1012D000B6010E94350C811110C0A5019401C50111
:1012E000B4010E94350C811108C0A3019201C30111
:1012F000B2010E94350C882361F18BE291E00E94DB
:10130000400488E291E00E944004209709F48BCFCA
:101310000E94B801882309F486CF0E94000083CF81
:101320006091F2017091F30176276727762790E0AC
:1013300080E00E94CB0A2DEC3CEC4CEC5DE30E947B
:10134000820BA8CF412C512C80EC682E8FE7782E91
:10135000BCCF42E0C501B4010E94910488E291E053
:101360000E94400442E0C701B6010E949104C9CF27
:101370005058BB27AA270E94D0090C94430B0E9407
:10138000350B38F00E943C0B20F039F49F3F19F4E4
:1013900026F40C94320B0EF4E095E7FB0C942C0B26
:1013A000E92F0E94540B58F3BA176207730784079A
:1013B000950720F079F4A6F50C94760B0EF4E095E1
:1013C0000B2EBA2FA02D0B01B90190010C01CA01FF
:1013D000A0011124FF27591B99F0593F50F4503EAA
:1013E00068F11A16F040A22F232F342F4427585F9C
:1013F000F3CF469537952795A795F0405395C9F7B4
:101400007EF41F16BA0B620B730B840BBAF091506B
:10141000A1F0FF0FBB1F661F771F881FC2F70EC00A
:10142000BA0F621F731F841F48F4879577956795DD
:10143000B795F7959E3F08F0B0CF9395880F08F0C9
:101440009927EE0F9795879508950E94080B08F449
:1014500081E008950E943E0A0C94430B0E943C0BCD
:1014600058F00E94350B40F029F45F3F29F00C94AE
:101470002C0B51110C94770B0C94320B0E94540BD3
:1014800068F39923B1F3552391F3951B550BBB27B3
:10149000AA2762177307840738F09F5F5F4F220FF8
:1014A000331F441FAA1FA9F335D00E2E3AF0E0E8EF
:1014B00032D091505040E695001CCAF72BD0FE2F39
:1014C00029D0660F771F881FBB1F261737074807CD
:1014D000AB07B0E809F0BB0B802DBF01FF27935885
:1014E0005F4F3AF09E3F510578F00C942C0B0C9412
:1014F000770B5F3FE4F3983ED4F386957795679535
:10150000B795F7959F5FC9F7880F911D96958795B9
:1015100097F90895E1E0660F771F881FBB1F6217D8
:1015200073078407BA0720F0621B730B840BBA0B96
:10153000EE1F88F7E09508950E945C0B88F09F5796
:1015400098F0B92F9927B751B0F0E1F0660F771FE7
:10155000881F991F1AF0BA95C9F714C0B13091F0DD
:101560000E94760BB1E008950C94760B672F782FCC
:101570008827B85F39F0B93FCCF3869577956795A2
:10158000B395D9F73EF490958095709561957F4F0E
:101590008F4F9F4F0895E89409C097FB3EF49095B4
:1015A0008095709561957F4F8F4F9F4F9923A9F03C
:1015B000F92F96E9BB279395F695879577956795CB
:1015C000B795F111F8CFFAF4BB0F11F460FF1BC00F
:1015D0006F5F7F4F8F4F9F4F16C0882311F096E9A2
:1015E00011C0772321F09EE8872F762F05C0662350
:1015F00071F096E8862F70E060E02AF09A95660F09
:10160000771F881FDAF7880F9695879597F90895C1
:10161000990F0008550FAA0BE0E8FEEF1616170603
:10162000E807F907C0F012161306E407F50798F06B
:10163000621B730B840B950B39F40A2661F0232B84
:10164000242B252B21F408950A2609F4A140A69500
:101650008FEF811D811D089597F99F6780E870E0E5
:1016600060E008959FEF80EC089500240A94161618
:10167000170618060906089500240A941216130680
:10168000140605060895092E0394000C11F488230E
:1016900052F0BB0F40F4BF2B11F460FF04C06F5F2A
:1016A0007F4F8F4F9F4F089557FD9058440F551F00
:1016B00059F05F3F71F04795880F97FB991F61F0D4
:1016C0009F3F79F087950895121613061406551F4B
:1016D000F2CF4695F1DF08C0161617061806991FB7
:1016E000F1CF86957105610508940895E894BB27AC
:1016F00066277727CB0197F908950E94080B08F415
:101700008FEF08950E94950B0C94430B0E94350BAC
:1017100038F00E943C0B20F0952311F00C942C0B18
:101720000C94320B11240C94770B0E94540B70F321
:10173000959FC1F3950F50E0551F629FF001729F76
:10174000BB27F00DB11D639FAA27F00DB11DAA1F85
:10175000649F6627B00DA11D661F829F2227B00DD2
:10176000A11D621F739FB00DA11D621F839FA00D5D
:10177000611D221F749F3327A00D611D231F849FAD
:10178000600D211D822F762F6A2F11249F57504004
:101790009AF0F1F088234AF0EE0FFF1FBB1F661F7F
:1017A000771F881F91505040A9F79E3F510580F048
:1017B0000C942C0B0C94770B5F3FE4F3983ED4F31E
:1017C000869577956795B795F795E7959F5FC1F7EC
:1017D000FE2B880F911D9695879597F9089519F41A
:1017E00016F40C94320B0C943A0C0E945C0BB8F378
:1017F0009923C9F3B6F39F57550B87FF0E94480CF6
:101800000024A0E640EA900180585695979528F468
:10181000805C660F771F881F20F026173707480760
:1018200030F4621B730B840B202931294A2BA695B7
:1018300017940794202531254A2758F7660F771FFC
:10184000881F20F026173707480730F4620B730B08
:10185000840B200D311D411DA09581F7B901842F06
:101860009158880F9695879508950E94080B880BCC
:10187000990B08959F3F31F0915020F4879577950B
:101880006795B795880F911D9695879597F9089557
:1018900091505040660F771F881FD2F70895A1E23C
:1018A0001A2EAA1BBB1BFD010DC0AA1FBB1FEE1FDA
:1018B000FF1FA217B307E407F50720F0A21BB30B25
:1018C000E40BF50B661F771F881F991F1A9469F7A1
:1018D00060957095809590959B01AC01BD01CF01FD
:1018E0000895EE0FFF1F0590F491E02D0994F894F0
:0218F000FFCF28
:1018F20000000000EE014E017B013B02AC018A01B7
:101902009E016E616E00696E66006F7666004448E5
:10191200542066696E616C000D0A004661696C654F
:101922006420746F20726561642066726F6D20445A
:0C19320048542073656E736F7221000032
:00000001FF
